:020000040800F2
:100000004010002089010008DD260008D5200008E6
:10001000A12500085D060008B535000800000000B5
:10002000000000000000000000000000FD280008A3
:10003000550B000800000000B5270008192E000825
:10004000A3010008A3010008A3010008A301000800
:10005000A3010008A3010008A3010008A3010008F0
:10006000A3010008A3010008A3010008A3010008E0
:10007000A3010008A3010008A3010008A3010008D0
:10008000A3010008A3010008A3010008A3010008C0
:10009000A3010008A3010008A3010008A3010008B0
:1000A000A3010008A3010008A3010008A3010008A0
:1000B000A3010008992E0008A3010008A30100086D
:1000C000A3010008A3010008A3010008A301000880
:1000D000A3010008AD32000845330008A301000861
:1000E000A3010008A3010008A301000800F002F822
:1000F00000F03AF80AA090E8000C82448344AAF188
:100100000107DA4501D100F02FF8AFF2090EBAE885
:100110000F0013F0010F18BFFB1A43F0010318473B
:10012000B45A0000D45A0000103A24BF78C878C1ED
:10013000FAD8520724BF30C830C144BF04680C60ED
:10014000704700000023002400250026103A28BF35
:1001500078C1FBD8520728BF30C148BF0B60704739
:100160001FB51FBD10B510BD00F06CF81146FFF7AC
:10017000F7FF04F061F800F08AF803B4FFF7F2FF2C
:1001800003BC00F08DF8000009488047094800478B
:10019000FEE7FEE7FEE7FEE7FEE7FEE7FEE7FEE737
:1001A000FEE7FEE704480549054A064B7047000094
:1001B000392E0008ED000008400A00204010002001
:1001C000400C0020400C00204FF0000200B5134608
:1001D00094469646203922BFA0E80C50A0E80C5067
:1001E000B1F12001BFF4F7AF090728BFA0E80C5018
:1001F00048BF0CC05DF804EB890028BF40F8042B11
:1002000008BF704748BF20F8022B11F0804F18BF7D
:1002100000F8012B704770477047704710B500F029
:1002200009F8006810BD10B5044600F003F804603A
:1002300010BD000000487047DC09002000487047EE
:10024000DC0900207546FFF7F9FFAE460500694658
:10025000534620F00700854618B020B5FFF7A2FFEF
:10026000BDE820404FF000064FF000074FF00008B7
:100270004FF0000B21F00701AC46ACE8C009ACE838
:10028000C009ACE8C009ACE8C0098D46704710B59C
:100290000446AFF300802046BDE81040FFF76DBF75
:1002A00001491820ABBEFEE726000200704721B1CD
:1002B000826842F00102826003E0826822F001025B
:1002C0008260704721B1826842F48072826003E0EC
:1002D000826822F4807282607047000000B591B09D
:1002E0000121084602F068FA01214FF4027002F081
:1002F00083FA0220ADF8000000208DF80300694663
:10030000324801F0A9F9324800F060FB3148019011
:1003100031480290002003900A20049000200590AC
:1003200080200690400007908000089020200990CF
:1003300000020A9000200B9001A9254800F0ECFB78
:100340000121234800F036FB00200C9001208DF89D
:1003500034008DF835004FF460200E9000200F908F
:1003600001208DF840000CA91A484C3800F04AF8DA
:1003700005230122092117484C3800F06BF80121B0
:1003800014484C38FFF79EFF012112484C38FFF704
:100390008EFF10484C3800F0B9F800BF0D484C38BB
:1003A00000F026F80028F9D10A484C3800F0BEF8D1
:1003B00000BF08484C3800F011F80028F9D101219D
:1003C00004484C3800F0A7F811B000BD000C014003
:1003D000080002404C24014000010020014600209A
:1003E0008A6802F004020AB1012000E00020704790
:1003F000014600208A6802F008020AB1012000E0EC
:100400000020704730B502460020002350680F4C92
:1004100020400D790C6844EA052420435060906820
:100420000B4C2040D1E902542C434D7944EA450459
:1004300020439060D06A20F470000C7C641EE4B20B
:10044000234340EA0350D06230BD0000FFFEF0FFBE
:10045000FDF7F1FFF0B504460D4600200021092DFF
:1004600011DDE068A5F10A0606EB4607072606FA45
:1004700007F18843A5F10A0606EB460603FA06F1E2
:100480000843E0600CE0206905EB4507072606FA03
:1004900007F1884305EB450603FA06F1084320619E
:1004A000072A0FDA606B561E06EB86071F2606FA30
:1004B00007F18843561E06EB860605FA06F1084347
:1004C000606322E00D2A0FDA206BD61F06EB860749
:1004D0001F2606FA07F18843D61F06EB860605FAA3
:1004E00006F10843206310E0E06AA2F10D0606EB76
:1004F00086071F2606FA07F18843A2F10D0606EBD0
:10050000860605FA06F10843E062F0BD816841F015
:1005100008018160704721B1826842F4A0028260C4
:1005200003E0826822F4A00282607047816841F093
:1005300004018160704700002DE9F74F86B08346C3
:100540003849087800EBD0714910A0EB4101E1B9BE
:100550003548006805F028F804463448006805F07E
:1005600023F805463248006805F01EF80646314873
:100570003149324A3346CDE90054CDE90221049095
:100580005846DDE9071203F051FA26480078401C6E
:10059000244908702A49B1F90A0004F0E2FB074631
:1005A000284A294B04F044FC054604F03FF9044670
:1005B0002349B1F9060004F0D4FB0746214A224B37
:1005C00004F036FC054604F031F981461C49B1F9C6
:1005D000080004F0C6FB07461A4A1B4B04F028FC2F
:1005E000054604F023F9824612480068124909685A
:1005F000CDE900101148224649460368504603F0F1
:1006000079FA1249098888B21149B1F900301149C3
:10061000B1F900201049B1F9001003F057FC09B0FE
:10062000BDE8F08F580000202C000020240000209E
:100630002800002054000020500000204C00002022
:10064000880200201FF1D01CFE3FAF3F2000002099
:100650001C0000201A0000201800002000BFFEE748
:100660002DE9FF4104460A9D29464FF07E5005F0D2
:10067000BBF98046019904F0F7FF06462946206839
:1006800004F0F2FF0746314604F01CFE20602946C4
:100690004FF07E5005F0A8F98046029904F0E4FF7F
:1006A00006462946606804F0DFFF0746314604F03D
:1006B00009FE606029464FF07E5005F095F98046AE
:1006C000039904F0D1FF06462946A06804F0CCFF48
:1006D0000746314604F0F6FDA060BDE8FF8170B525
:1006E00005460C462146284604F0ECFD06463146F8
:1006F000204604F05BFE70BD4648007870B90020CB
:100700004549888100214448C18101820020424935
:100710004882002140488182C18275E03D480078CE
:10072000642830DA3C48B0F900003C4909680844C4
:100730003A4908603848B0F9020039490968084464
:10074000374908603448B0F904003649096808445C
:10075000344908603048B0F9060033490968084454
:10076000314908602C48B0F908003049096808444C
:100770002E4908602848B0F90A002D490968084444
:100780002B49086040E025480068642190FBF1F0A7
:1007900000B22149888122480068642190FBF1F071
:1007A00001B21D48C1811F480068642190FBF1F02F
:1007B00001B2194801821C480068642190FBF1F0E5
:1007C00000B21549488219480068642190FBF1F095
:1007D00001B21148818216480068642190FBF1F053
:1007E00001B20D48C18200200A4908700B49086017
:1007F0000B4908600B4908600B4908600B49086009
:100800000B4908600B49087002480078401C0149F8
:1008100008707047C000002088020020C40000203B
:10082000C8000020CC000020D0000020D400002010
:10083000D8000020B400002010B502460B4600206E
:10084000002104E0545C0444E0B24C1CE1B2994243
:10085000F8DB10BD0FB42DE9FF5F149804F006FD1E
:1008600006460F46494A11680E9804F02BFD039086
:1008700004F0FCFC80460022454B04F0D9FA824685
:1008800032463B4604F0D4FA044603F0CFFF414918
:1008900008603E490E980860149804F0E7FC06468C
:1008A0000F463A4A51680F9804F00CFD039004F08B
:1008B000DDFC80460022364B04F0BAFA824632460E
:1008C0003B4604F0B5FA044603F0B0FF31494860F6
:1008D0002E490F984860149804F0C8FC04460D4651
:1008E0002A4A9168109804F0EDFC039004F0BEFCD5
:1008F00080460022264B04F09BFA064622462B46F1
:1009000004F096FA824603F091FF224988601F495D
:10091000109888602048214B00901E4807C803F0BB
:100920000DFB1F48006800901C4811A90EC9FFF775
:1009300097FE1A4807C803F01DFC149804F096FCB3
:10094000CDE902011749B1F90A0004F00AFA064696
:10095000154A164B04F06CFACDE90001DDE90223DB
:1009600004F066FA04460D461149886804F07EFCDE
:10097000804622462B4603F08BFF824603F056FF4B
:100980000B498860BDE8FF1F5DF814FB7C02002066
:100990000000E03F70020020780000206C00002082
:1009A00068000020880200201FF1D01CFE3FAF3FEE
:1009B0006402002021B1026842F00102026004E0FA
:1009C00002684FF6FE731A400260704701684FF6E6
:1009D000FE72114001600021016041608160C160D0
:1009E0004B49884208D14A490839496841F00F010A
:1009F000474A083A51608AE045491431884208D193
:100A000043490839496841F0F001414A083A5160C8
:100A10007DE03F492831884208D13D49083949687D
:100A200041F470613A4A083A516070E038493C310B
:100A3000884208D136490839496841F47041344A3E
:100A4000083A516063E032495031884208D1304958
:100A50000839496841F470212D4A083A516056E03E
:100A60002B496431884208D129490839496841F441
:100A70007001274A083A516049E025497831884297
:100A800008D123490839496841F07061204A083A81
:100A900051603CE01F49884206D1011F096841F0BE
:100AA0000F01021F116032E01A491431884208D147
:100AB0001849091F096841F0F001164A121F116018
:100AC00025E014492831884208D11249091F0968D4
:100AD00041F470610F4A121F116018E00D493C315A
:100AE000884208D10B49091F096841F47041094A3D
:100AF000121F11600BE007495031884207D10549A8
:100B0000091F096841F47021024A121F11607047E1
:100B1000080002400804024010B50022026847F6AF
:100B2000F0739A430C6A8B6823430C6923434C6926
:100B300023438C692343CC6923434C6A23438C6A47
:100B400023431A430260CB6843600B6883604B68A1
:100B5000C36010BD704700000346062106221248FC
:100B6000018812480288ABB1012B1BD13AB94EF66D
:100B7000EE60814201D1002070470120FCE739B9C5
:100B80004EF6EE60824201D10120F5E70020F3E746
:100B9000AB20F1E709B90020EEE70AB90120EBE745
:100BA000AB20E9E70020E7E70000010800040108A6
:100BB00010B504240B4800F0A1FC0446042C01D01D
:100BC000204610BD0021074800F0D8FC0446042C44
:100BD00001D02046F5E7044800F090FC044620468A
:100BE000EFE7000000000108000401082DE9F047CC
:100BF0004FF0060A062600250027A8464FF0FF39C9
:100C00007448B0F800A074480688BAF1000075D0A6
:100C1000A0F56E40EE3858B3A0F588501138002882
:100C20006DD146B96B4800F069FC0446042C1ED017
:100C30002046BDE8F0874EF6EE60864210D165484A
:100C400000F05CFC0446042C01D02046F1E70021B2
:100C5000614800F093FC0446042C08D02046E8E7E5
:100C6000FFF7A6FF0446042C01D02046E1E7AEE0E2
:100C70007EBB002522E05748C088584931F815103E
:100C8000884201D10FFA85F94D4515D0534931F805
:100C90001500534900F01EF98046B8F1010F0BD042
:100CA0004E4931F815004E49098800F095FA07467B
:100CB000042F01D03846BCE7681C85B2182DDADB5A
:100CC0000021444800F05AFC0446042C02D020467F
:100CD000AFE707E0404800F011FC0446042C1FD0A9
:100CE0002046A6E74FF6FF70864212D13A4800F040
:100CF00005FC0446042C03D020469AE711E05EE090
:100D00000021344800F03AFC0446042C08D0204668
:100D10008FE7FFF74DFF0446042C01D0204688E7FB
:100D200055E036B9FFF744FF0446042C46D0204670
:100D30007FE74FF6FF70864207D1274800F0DEFBC1
:100D40000446042C3AD0204673E7002523E02248CD
:100D5000801D0088214931F81510884201D10FFA11
:100D600085F94D4515D01D4931F815001C4900F095
:100D7000B1F88046B8F1010F0BD0184931F81500D1
:100D80001749098800F028FA0746042F01D0384691
:100D90004FE7681C85B2182DD9DB00210E4800F002
:100DA000EDFB0446042C01D0204642E7094800F040
:100DB000A5FB0446042C01D020463AE707E0FFF7E4
:100DC000F7FE0446042C01D0204632E700BF00BFE6
:100DD00004202EE700000108000401088400002020
:100DE000000000202DE9F84F074689460425DFF86A
:100DF000D4A0354800904FF00008002400264FF0A2
:100E0000000B0020FFF7A8FE8046B8F1010F05D1C6
:100E1000DFF8B4A02B48401C00900CE0B8F1000FA4
:100E200006D1DFF8A0A00AF1010A2748009002E0ED
:100E3000AB20BDE8F88F4EF6EE61504600F09EFB09
:100E40000546042D01D02846F3E74946384600F010
:100E5000C3F90646042E01D03046EAE700241CE020
:100E60001A4830F81400B84215D0184931F8140067
:100E7000174900F02FF88346BBF1010F0BD013493F
:100E800031F814001249098800F0A6F90646042E2C
:100E900001D03046CDE7601C84B2182CE0DB00980E
:100EA00000F02CFB0546042D01D02846C1E70021A7
:100EB000504600F063FB0546042D01D02846B8E7F4
:100EC0002846B6E7FF03010800000108840000205F
:100ED000000000202DE9F04706460F46002445F2A9
:100EE00055584FF00109124DAA460020FFF734FE75
:100EF0000446AB2C01D1BDE8F0870D4800EB842AF5
:100F0000601C0B49891E01EB80250AE0B5F80080C2
:100F1000B04505D135F8020C38804FF0000904E0E7
:100F20002D1F0AF102008542F0D800BF4846E2E7D3
:100F30000000010810B5124908881249FFF7CAFFDE
:100F40000F4948880F49891CFFF7C4FF0C4988885E
:100F50000C49091DFFF7BEFF0949C8880949891DC9
:100F6000FFF7B8FF0649088906490831FFF7B2FFC5
:100F70000349488903490A31FFF7ACFF10BD00005F
:100F8000840000209402002038B5444988896946CD
:100F9000FFF7A0FFBDF8000004F01EFB0446404927
:100FA00004F004FA3F4948613C49C8896946FFF7A3
:100FB00091FFBDF8000004F00FFB0446384904F02F
:100FC000F5F9384988613549088A6946FFF782FF93
:100FD000BDF8000004F000FB0446314904F0E6F9D6
:100FE0003049C8612D49488A6946FFF773FFBDF84B
:100FF000000004F0F1FA0446294904F0D7F92A491F
:1010000048612649888A6946FFF764FFBDF80000F9
:1010100004F0E2FA0446224904F0C8F92249886142
:101020001E49C88A6946FFF755FFBDF8000004F065
:10103000D3FA04461A4904F0B9F91B49C8611749A3
:10104000088B6946FFF746FFBDF8000004F0C4FABC
:101050000446134904F0AAF9144948610F49488B22
:101060006946FFF737FFBDF8000004F0B5FA044603
:101070000B4904F09BF90D4988610849888B694642
:10108000FFF728FFBDF8000004F0A6FA0446044963
:1010900004F08CF90549C86138BD000084000020C7
:1010A0000000C842BC010020F40100202C020020F6
:1010B00038B54449C88B6946FFF70CFFBDF80000FE
:1010C00004F08AFA0446404904F070F93F49486147
:1010D0003C49088C6946FFF7FDFEBDF8000004F0AE
:1010E0007BFA0446384904F061F93849886135498A
:1010F000488C6946FFF7EEFEBDF8000004F06CFA7C
:101100000446314904F052F93049C8612D49888CB0
:101110006946FFF7DFFEBDF8000004F05DFA044603
:10112000294904F043F92A4948612649C88C69468F
:10113000FFF7D0FEBDF8000004F04EFA0446224945
:1011400004F034F9224988611E49088D6946FFF789
:10115000C1FEBDF8000004F03FFA04461A4904F04D
:1011600025F91B49C8611749488D6946FFF7B2FE4A
:10117000BDF8000004F030FA0446134904F016F9F3
:10118000144948610F49888D6946FFF7A3FEBDF8F1
:10119000000004F021FA04460B4904F007F90D4958
:1011A00088610849C88D6946FFF794FEBDF80000C4
:1011B00004F012FA0446044904F0F8F80549C8613D
:1011C00038BD0000840000200000C8421401002047
:1011D0004C010020840100202DE9F0470646884696
:1011E00004270025154CDFF858900120FFF7B4FCC8
:1011F0000546AB2D01D1BDE8F087104800EB8524F2
:10120000681C0E49891E01EB802913E02068401CF0
:1012100078B94146204600F0B1F90746042F01D0C5
:101220003846E8E73146A01C00F0A8F907463846E2
:10123000E1E7241D4C45E9D38020DCE700000108EC
:10124000FF07010870B505460E46002431462846C2
:10125000FFF7C2FF0446802C04D131462846FFF731
:10126000C1FD0446204670BD10B5154A928991B261
:10127000144A1088FFF7E6FF114AD28991B2114A49
:101280005088FFF7DFFF0E4A128A91B20D4A90880C
:10129000FFF7D8FF0A4A528A91B20A4AD088FFF76C
:1012A000D1FF074A928A91B2064A1089FFF7CAFF16
:1012B000034AD28A91B2034A5089FFF7C3FF10BD97
:1012C000880200208400002070B53F4948693F49EA
:1012D00004F0CAF9054604F047F984B23C4988890C
:1012E0002146FFF7AFFF38498869384904F0BCF957
:1012F000054604F039F984B23549C8892146FFF71B
:10130000A1FF3149C869314904F0AEF9054604F03E
:101310002BF984B22E49088A2146FFF793FF2D4905
:1013200048692A4904F0A0F9054604F01DF984B281
:101330002749488A2146FFF785FF264988692349BE
:1013400004F092F9054604F00FF984B22049888A26
:101350002146FFF777FF1F49C8691C4904F084F94B
:10136000054604F001F984B21949C88A2146FFF7FD
:1013700069FF19494869154904F076F9054604F0F2
:10138000F3F884B21249088B2146FFF75BFF12493C
:1013900088690E4904F068F9054604F0E5F884B25E
:1013A0000B49488B2146FFF74DFF0B49C869074998
:1013B00004F05AF9054604F0D7F884B20449888B42
:1013C0002146FFF73FFF70BDBC0100200000C8426E
:1013D00084000020F40100202C02002070B53F4959
:1013E00048693F4904F040F9054604F0BDF884B26D
:1013F0003C49C88B2146FFF725FF384988693849A1
:1014000004F032F9054604F0AFF884B23549088C8F
:101410002146FFF717FF3149C869314904F024F923
:10142000054604F0A1F884B22E49488C2146FFF706
:1014300009FF2D4948692A4904F016F9054604F0C8
:1014400093F884B22749888C2146FFF7FBFE264992
:101450008869234904F008F9054604F085F884B248
:101460002049C88C2146FFF7EDFE1F49C8691C4979
:1014700004F0FAF8054604F077F884B21949088DAB
:101480002146FFF7DFFE19494869154904F0ECF8D9
:10149000054604F069F884B21249488D2146FFF7E9
:1014A000D1FE124988690E4904F0DEF8054604F0C1
:1014B0005BF884B20B49888D2146FFF7C3FE0B49C8
:1014C000C869074904F0D0F8054604F04DF884B225
:1014D0000449C88D2146FFF7B5FE70BD14010020F8
:1014E0000000C842840000204C010020840100203C
:1014F0000120014908707047B400002030B504464F
:1015000004254FF4302000F065F80546042D17D16E
:101510000C48006940F002000A490861084644612D
:10152000006940F0400008614FF4302000F052F8AC
:1015300005460448006941F6FD710840014908610B
:10154000284630BD0020024004200B49C96801F044
:10155000010109B101200EE00749C96801F0040149
:1015600009B1022007E00449C96801F0100109B17E
:10157000032000E0042070470020024070B50446BC
:101580000D460426F00200F025F80646042E11D17F
:101590000948006940F00100074908612580F00210
:1015A00000F018F806460448006941F6FE7108404C
:1015B00001490861304670BD0020024002480349DD
:1015C0004860034848607047230167450020024097
:1015D000AB89EFCD00B502460423FFF7B5FF034604
:1015E00003E0FFF7B1FF0346521E012B01D1002A91
:1015F000F7D102B90523184600BD000010B5034914
:101600000348FFF76CF80349086010BD9A99993FA9
:101610006F12033B6800002008B54FF47070ADF8FE
:10162000000010208DF8030003208DF802006946A9
:10163000084800F011F84FF4C040ADF80000102049
:101640008DF8030003208DF802006946014800F080
:1016500003F808BD000C01402DE9F04102460025C9
:101660000026002000230024002791F803C00CF07E
:101670000F0591F803C00CF0100CBCF1000F03D063
:1016800091F802C04CEA050591F800C0BCF1000FCA
:1016900031D0146800202BE04FF0010C0CFA00F35D
:1016A000B1F800C00CEA03069E4220D183004FF03F
:1016B0000F0C0CFA03F7BC4305FA03FC4CEA0404D4
:1016C00091F803C0BCF1280F06D14FF0010C0CFAC1
:1016D00000FCC2F814C00AE091F803C0BCF1480F46
:1016E00005D14FF0010C0CFA00FCC2F810C0401CF0
:1016F0000828D1D31460B1F800C0BCF1FF0F34DD6D
:10170000546800202EE000F1080C4FF0010808FAA0
:101710000CF3B1F800C00CEA03069E4221D183000D
:101720004FF00F0C0CFA03F7BC4305FA03FC4CEA2C
:10173000040491F803C0BCF1280F05D100F1080C96
:1017400008FA0CF8C2F8148091F803C0BCF1480FF5
:1017500007D100F1080C4FF0010808FA0CF8C2F8A4
:101760001080401C0828CED35460BDE8F0810000F2
:10177000002105E0064830F811000244481CC1B2BF
:101780000A29F7DB0A20B2FBF0F080B270470000B4
:101790000001002018B50446AA20207021206070A6
:1017A0001C20A0702A48808980B200909DF801001A
:1017B000E0709DF8000020712548C08980B200903B
:1017C0009DF8010060719DF80000A0712048008A1A
:1017D00080B200909DF80100E0719DF80000207239
:1017E0001B48408A80B200909DF8010060729DF80D
:1017F0000000A0721648808A80B200909DF8010017
:10180000E0729DF8000020731148C08A80B20090F9
:101810009DF8010060739DF80000A0730020E07344
:1018200020746074A074E07420756075A075E07514
:1018300020766076A076E07620776077A077A07833
:10184000C01CC1B22046FEF7F7FFE07718BD0000CC
:10185000880200202DE9F047044609490968601A0A
:1018600003F096FA0746074A074B03F0E1FA0546EC
:1018700002F0DCFF8146024804604846BDE8F0877C
:10188000DC0000208DEDB5A0F7C6B03E2DE9F0419B
:101890008AB000F063F82B482B4A2C4903682C4887
:1018A00002F0ADFC2A49B1F9060003F05AFA0746E6
:1018B000284A294B03F0BCFA054602F0B7FF07900F
:1018C0002349B1F9080003F04CFA0746214A224B9C
:1018D00003F0AEFA054602F0A9FF08901C49B1F9E1
:1018E0000A0003F03EFA07461A4A1B4B03F0A0FA1F
:1018F000054602F09BFF09901449B1F9000003F07E
:1019000053FE04901149B1F9020003F04DFE059019
:101910000E49B1F9040003F047FE069000F0F2FA18
:101920000546FFF797FF04460294DDE90501CDE97E
:101930000001049B07A807C8FEF78CFF0AB0BDE8AA
:10194000F0810000BC000020B0020020B6000020A2
:10195000880200202877442A3174513F10B5284866
:1019600000F0EEFD264840782549097840EA01203C
:1019700024498989401A00B2224908802048C07849
:101980001F49897840EA01211E48C089081A00B21F
:101990001C4948801A4840791949097940EA0121CF
:1019A0001848008A081A00B2164988801448407AFC
:1019B0001349097A40EA01201249498A401A00B2C3
:1019C0001049C8800E48C07A0D49897A40EA012141
:1019D0000C48808A081A01B20A4801810848407BF5
:1019E0000749097B40EA01210648C08A081A01B26A
:1019F000044841810448007808B1FEF77DFE10BD1F
:101A0000A002002088020020B400002038B504465F
:101A1000AA202070202060701C20A07051494869C5
:101A2000514903F021FE054603F09EFD80B200906F
:101A30009DF80100E0709DF8000020714949886917
:101A4000494903F011FE054603F08EFD80B2009077
:101A50009DF8010060719DF80000A0714149C869BE
:101A6000414903F001FE054603F07EFD80B200907F
:101A70009DF80100E0719DF8000020723B49486923
:101A8000394903F0F1FD054603F06EFD80B2009088
:101A90009DF8010060729DF80000A07233498869CA
:101AA000314903F0E1FD054603F05EFD80B2009090
:101AB0009DF80100E0729DF8000020732B49C86971
:101AC000294903F0D1FD054603F04EFD80B2009098
:101AD0009DF8010060739DF80000A07324494869D7
:101AE000214903F0C1FD054603F03EFD80B20090A0
:101AF0009DF80100E0739DF8000020741C4988697E
:101B0000194903F0B1FD054603F02EFD80B20090A7
:101B10009DF8010060749DF80000A0741449C86924
:101B2000114903F0A1FD054603F01EFD80B20090AF
:101B30009DF80100E0749DF800002075002060759C
:101B4000A075E07520766076A076E07620776077E5
:101B5000A077A078C01CC1B22046FEF76DFEE077EA
:101B600038BD0000BC0100200000C842F401002084
:101B70002C02002038B50446AA2020702420607072
:101B80001C20A07051494869514903F06DFD05467C
:101B900003F0EAFC80B200909DF80100E0709DF82F
:101BA0000000207149498869494903F05DFD0546F7
:101BB00003F0DAFC80B200909DF8010060719DF89E
:101BC0000000A0714149C869414903F04DFD054637
:101BD00003F0CAFC80B200909DF80100E0719DF80E
:101BE000000020723B494869394903F03DFD054634
:101BF00003F0BAFC80B200909DF8010060729DF87D
:101C00000000A07233498869314903F02DFD054673
:101C100003F0AAFC80B200909DF80100E0729DF8EC
:101C2000000020732B49C869294903F01DFD0546B2
:101C300003F09AFC80B200909DF8010060739DF85B
:101C40000000A07324494869214903F00DFD0546B1
:101C500003F08AFC80B200909DF80100E0739DF8CB
:101C6000000020741C498869194903F0FDFC0546F1
:101C700003F07AFC80B200909DF8010060749DF83A
:101C80000000A0741449C869114903F0EDFC054631
:101C900003F06AFC80B200909DF80100E0749DF8AA
:101CA0000000207500206075A075E07520766076D4
:101CB000A076E07620776077A077A078C01CC1B2CC
:101CC0002046FEF7B9FDE07738BD00001401002082
:101CD0000000C8424C010020840100202DE9F84397
:101CE0000446AA202070302060701C20A070774924
:101CF0004868774903F0B8FC054603F019FC80B248
:101D000000909DF80100E0709DF8000020716F497F
:101D100008686F4903F0A8FC054603F009FC80B28F
:101D200000909DF8010060719DF80000A071674966
:101D30008868674903F098FC054603F0F9FB80B218
:101D400000909DF80100E0719DF80000207261494B
:101D5000B1F9060003F005F807465F4A5F4B03F050
:101D600067F8054602F0A0FF80B200909DF80100E0
:101D700060729DF80000A0725649B1F9080002F0A7
:101D8000F0FF0746544A554B03F052F8054602F05F
:101D90008BFF80B200909DF80100E0729DF800007A
:101DA00020734C49B1F90A0002F0DBFF07464A4AAA
:101DB0004A4B03F03DF8054602F076FF80B20090F2
:101DC0009DF8010060739DF80000A07344494548E8
:101DD000006803F049FC054603F0AAFB80B20090BE
:101DE0009DF80100E0739DF8000020743C493E48D6
:101DF000006803F039FC054603F09AFB80B20090BE
:101E00009DF8010060749DF80000A07434493748C3
:101E1000006803F029FC054603F08AFB80B20090BD
:101E20009DF80100E0749DF800002075304800889E
:101E300080B200909DF8010060759DF80000A075CB
:101E40002C48008880B200909DF80100E0759DF854
:101E5000000020762848008880B200909DF801009C
:101E600060769DF80000A0762448008880B200903B
:101E70009DF80100E0769DF800002077FFF778FCE0
:101E80000090BDF8000000EB80006E2100FB01F91E
:101E90004FEAE97109EB1151081302F062FF07469E
:101EA0000022174B02F0F4FC054602F02DFF80B231
:101EB0000090BDF80000801DA077A078C01CC1B2C2
:101EC0002046FEF7B9FCE077BDE8F8836402002005
:101ED0000000C842880200201FF1D01CFE3FAF3F27
:101EE000000020414C000020500000205400002041
:101EF000180000201A0000201C00002020000020F4
:101F00000000E03F00BF0E4801684FF0E02082690A
:101F10000B4800688142F6D10A48006800EB400394
:101F2000C3EBC010C2EBC000064B1B68B0FBF3F064
:101F300001EB4103C3EBC11300EBC300704700008A
:101F4000600000205C0000202DE9F04F85B00446C1
:101F50002079E17840EA012AA079617940EA0129F3
:101F6000207AE17940EA012BA07A617A40EA0120E7
:101F70000490BAF10A0F06DA0120494908700020DE
:101F80004849087002E00020454908704648C0F8FA
:101F900000A0A9F2DC5940F2DC50A0EB0B00434951
:101FA000086040F2DC510498081A4149086008466C
:101FB000006802F0D6FE074600223E4B02F01CFDF0
:101FC000054602F071FE3A4908603848006802F0A0
:101FD000C8FE07460022374B02F00EFD054602F010
:101FE00063FE324908601E2099FBF0F909FB09F0F5
:101FF000192801DA4FF00009484602F0B2FE00222B
:102000002D4BCDE9000102F0F7FC05460E462B48AA
:10201000006803F02BF92A463346CDE9020102F0AD
:1020200037FC074602F002FC2449086008460068B5
:1020300003F07EFA224908601B4800680A2814DD74
:102040001848007888B917480078401C154908706E
:1020500000201C4988601A490860184908601A491C
:102060008860C86019498860C860607C20B94FF4F6
:1020700000501749086004E04FF400501449091D4E
:102080000860A07C20B94FF480401149086004E04A
:102090004FF480400E49091D086005B0BDE8F08F7F
:1020A00048000020590000202000002028000020C7
:1020B000240000200000594000002440440000207B
:1020C0002C000020640200202C020020840100204B
:1020D000100C014000BFFEE710B500200E4908605B
:1020E0000E48006820F470400C49086008460068FB
:1020F00040F44050086000200949C1F8AC010120BB
:1021000001F0D5FE01200449086001F0D0FE002056
:102110000349C1F8A80110BDA8812142040C014067
:102120000080214208B54FF48060ADF80000032024
:102130008DF8020014208DF8030069460848FFF767
:102140008BFA4FF40060ADF8000003208DF8020018
:1021500014208DF8030069460148FFF77DFA08BD99
:10216000000C014010B500200E4908600E480068C0
:1021700020F470400C4908600846006840F4405064
:10218000086001200949C1F8AC0101F090FE01206E
:102190000449086001F08BFE00200449C1F8A80141
:1021A00010BD0000A8812142040C014000802142A2
:1021B00070B5054600241748006820F470401549A2
:1021C00008600846006840F400400860002616E0F9
:1021D000002011490860012001F069FE01200F492B
:1021E000C1F8A8016006040E0B487C38006808B1ED
:1021F000601CC4B2012001F05AFE701CC6B2082E49
:10220000E6DB15B1FFF768FF01E0FFF7ABFF204603
:1022100070BD0000040C0140A881214200802142D1
:1022200070B504461448006820F4704012490860F4
:102230000846006840F44050086000200F490860DC
:10224000002516E0E0090D49091D08606006040E2E
:10225000012001F02CFE01200949C1F8A80101F07C
:1022600026FE002005490860012001F020FE681CC0
:10227000C5B2082DE6DB70BD040C0140A8812142E7
:102280000080214210B50F48006820F470400D49CD
:1022900008600846006840F44050086001200A4980
:1022A00008600A49C1F8A801022001F000FE0020E0
:1022B00005490860022001F0FAFD00200349C1F839
:1022C000A80110BD040C0140AC81214200802142D4
:1022D00010B50F48006820F470400D4908600846AA
:1022E000006840F44050086000200A4908600A492C
:1022F000C1F8AC01022001F0DAFD012005490860B7
:102300000549C1F8AC01022001F0D1FD10BD00006B
:10231000040C0140A88121420080214210B5002414
:102320001548006820F470401349086008460068AA
:1023300040F40040086001201049086001F0B7FD3A
:1023400001200F49C1F8A80101F0B1FD0AE0601CAD
:10235000C4B2322C03DDFFF7BBFF012010BD01200A
:1023600001F0A5FD0548803800680028EFD1034939
:10237000091F086000BFF1E7040C0140AC81214255
:10238000008021422DE9F0410746884615461E4649
:102390000024FFF777FF3846FFF742FFFFF7BEFF45
:1023A0004046FFF73DFFFFF7B9FFFFF76BFF791CD2
:1023B000C8B2FFF735FFFFF7B1FF00BF0DE0681EA1
:1023C000A04204D00120FFF7F3FE305503E00020C7
:1023D000FFF7EEFE3055601CC4B2AC42EFDBFFF7F6
:1023E00077FF2046BDE8F08137B504460D4602ABC5
:1023F00001222946204600F001F83EBD2DE9F041BA
:1024000080460D4616461F460024FFF73BFF404618
:10241000FFF706FFFFF782FF2846FFF701FFFFF7F0
:102420007DFF00BF06E0385DFFF7FAFEFFF776FF9D
:10243000601CC4B2B442F6DBFFF74AFF0120BDE8DE
:10244000F081000010B5002449E02648006800F43F
:10245000005028B14FF4005022490C31086004E0CC
:102460004FF400501F49083108601E48006800F40E
:10247000804028B14FF480401A490C31086004E0D4
:102480004FF480401749083108604FF47A7001F02A
:10249000FDFC1448006800F4005028B14FF40050CF
:1024A00010490C31086004E04FF400500D49083128
:1024B00008600C48006800F4804028B14FF4804068
:1024C00008490C31086004E04FF4804005490831A8
:1024D00008604FF47A7001F0D9FC601CC4B2022C81
:1024E000B3DB10BD080C014010B504460849204676
:1024F00003F086F901D2064C05E00649204603F0B8
:102500007FF800D20024204603F012F810BD00002E
:1025100000C079440000484308B50121082000F0BC
:102520006BF94FF48050ADF8000004208DF80300E3
:1025300069460248FFF790F808BD0000000C014012
:1025400010B5044623460E223B21D020FFF71AFF88
:1025500010BD10B5FFF7E0FF00216B2000F052FC2A
:10256000022001F093FC0021192000F04BFC022016
:1025700001F08CFC03211A2000F044FC022001F041
:1025800085FC18211B2000F03DFC022001F07EFCA0
:1025900010211C2000F036FC022001F077FC10BD59
:1025A00000BFFEE710B588B000240121042000F030
:1025B00013F90121082000F01FF94FF47070ADF8F5
:1025C000000003208DF8020018208DF803006946F2
:1025D0002648FFF741F8264800682649B0FBF1F08D
:1025E000401E84B240F2E730ADF81800ADF8144058
:1025F0000020ADF81A00ADF8160005A91E4800F03D
:10260000C5FD6020ADF804000120ADF806000020F3
:10261000ADF80A00ADF80C0001A9174800F05AFC0B
:102620000821154800F0A2FC01A9134800F0A8FCFD
:102630000821114800F0F6FC01A90F4800F000FD48
:1026400008210D4800F04CFD01A90B4800F052FD97
:102650000821094800F08CFD0121074800F022FC08
:102660000121054800F02AFC08B010BD000C014013
:10267000EC00002000366E010008004030B5B0F5D7
:102680007A7F02DB40F2E73002E0002800DA002027
:10269000B1F57A7F02DB40F2E73102E0002900DA8F
:1026A0000021B2F57A7F02DB40F2E73202E0002A35
:1026B00000DA0022B3F57A7F02DB40F2E73302E072
:1026C000002B00DA0023044D28802D1D29802D1DAC
:1026D0002A802D1D2B8030BD34080040704708B57E
:1026E0004FF4E06000F04CF800214FF0006000F083
:1026F00051F825208DF8000000208DF801008DF89C
:10270000020001208DF80300684600F001F808BDC2
:1027100070B5002100230F22C47804B3154C24683F
:1027200004F4E064C4F5E064210AC1F10403CA4082
:10273000447804FA03F184781440214309010E4CD3
:102740000678A155047804F01F050124AC400578F3
:102750006D11AD0005F1E025C5F8004109E00478F0
:1027600004F01F050124AC40044D0678761145F8AD
:10277000264070BD0CED00E000E400E080E100E0E8
:1027800002490143024A1160704700000000FA0547
:102790000CED00E0024A0A400243024B1A60704707
:1027A00080FFFF1F08ED00E010B500F095F900F084
:1027B0007BFA10BD7047000029B1064A52690243F6
:1027C000044B5A6104E0034A52698243014B5A6147
:1027D000704700000010024029B1064AD269024346
:1027E000044BDA6104E0034AD2698243014BDA61A7
:1027F000704700000010024029B1064A9269024366
:10280000044B9A6104E0034A92698243014B9A6146
:10281000704700000010024010B5012145F21D2054
:10282000FFF7EAFF10BD000030B5002100220024B0
:1028300000232D4D6D6805F00C0121B1042905D050
:10284000082923D105E0294D056022E0274D0560C8
:102850001FE0254D6D6805F47012234D6D6805F479
:102860008034022505EB92421CB9214D5543056089
:102870000BE01D4D6D6805F400351DB11C4D554331
:10288000056002E0194D5543056002E0174D0560F3
:1028900000BF00BF144D6D6805F0F0010909154D2A
:1028A0006B5C0568DD4045600F4D6D6805F4E061C7
:1028B000090A104D6B5C4568DD4085600A4D6D6806
:1028C00005F46051C90A0B4D6B5C4568DD40C5607D
:1028D000054D6D6805F44041890B074D6B5CC5687B
:1028E000B5FBF3F5056130BD0010024000127A001F
:1028F00000093D0002000020120000207047000087
:1029000010B504462079E17840EA0120A0F5FA707C
:1029100000B216498881A079617940EA0120A0F5CA
:10292000FA7001B21148C181207AE17940EA0120B0
:10293000A0F5FA7001B20D480182A07A617A40EAEE
:10294000012000B209494882207BE17A40EA012057
:1029500001B206488182A07B617B40EA012001B27E
:102960000248C182FEF780FC10BD000088020020F2
:102970002DE9FC5F04462179E27841EA022002F069
:1029800007FA074600224F4B02F036F8054601F0E1
:102990004DFF8246A179627941EA022002F0F8F9FE
:1029A00007460022474B02F027F8054601F03EFF9C
:1029B0008346217AE27941EA022002F0E9F90746EA
:1029C0000022404B02F018F8054601F02FFF814627
:1029D0003D485B4652460021CDE900903B4801F05E
:1029E0008FFDA17A627A41EA022002F0D1F907460E
:1029F0000022344B02F000F8054601F017FF824632
:102A0000217BE27A41EA022002F0C2F90746002265
:102A10002C4B01F0F1FF054601F008FF8346A17B36
:102A2000627B41EA022002F0B3F907460022254BFF
:102A300001F0E2FF054601F0F9FE814622485B46BF
:102A400052460021CDE90090214801F059FD217C3A
:102A5000E27B41EA022002F09BF907460022194B73
:102A600001F0CAFF054601F0E1FE8246A17C627CCE
:102A700041EA022002F08CF907460022114B01F0D6
:102A8000BBFF054601F0D2FE8346217DE27C41EA90
:102A9000022002F07DF9054600220A4B01F0ACFF4E
:102AA000074601F0C3FE814607485B4652460021B7
:102AB000CDE90090074801F023FDFEF705FCBDE8D5
:102AC000FC9F0000000059406F12833BBC010020B6
:102AD000F40100202C0200207CB5134D00260024B8
:102AE000124833462A460021CDE90040104801F043
:102AF00007FD00BF00BF00BF0C4833462A46002137
:102B0000CDE900400B4801F0FBFC0B4D00BF00BFBE
:102B1000064833462A460021CDE90040074801F027
:102B2000EFFCFEF7D1FB7CBD0000A0426F12833B9F
:102B3000BC010020F4010020000020412C020020F4
:102B40002DE9FC5F04462179E27841EA022002F097
:102B50001FF9074600224F4B01F04EFF054601F0DA
:102B600065FE8246A179627941EA022002F010F9FD
:102B700007460022474B01F03FFF054601F056FE95
:102B80008346217AE27941EA022002F001F9074600
:102B90000022404B01F030FF054601F047FE814620
:102BA0003D485B4652460021CDE900903B4801F08C
:102BB000A7FCA17A627A41EA022002F0E9F807460E
:102BC0000022344B01F018FF054601F02FFE82462B
:102BD000217BE27A41EA022002F0DAF8074600227D
:102BE0002C4B01F009FF054601F020FE8346A17B36
:102BF000627B41EA022002F0CBF807460022254B17
:102C000001F0FAFE054601F011FE814622485B46BE
:102C100052460021CDE90090214801F071FC217C51
:102C2000E27B41EA022002F0B3F807460022194B8A
:102C300001F0E2FE054601F0F9FD8246A17C627CCE
:102C400041EA022002F0A4F807460022114B01F0ED
:102C5000D3FE054601F0EAFD8346217DE27C41EA90
:102C6000022002F095F8054600220A4B01F0C4FE4E
:102C7000074601F0DBFD814607485B4652460021CE
:102C8000CDE90090074801F03BFCFEF7A7FBBDE84B
:102C9000FC9F0000000059406F12033B140100200C
:102CA0004C010020840100207CB5134D134E144CC0
:102CB000144833462A460021CDE90040124801F06D
:102CC0001FFC00BF00BF00BF0E4833462A4600214C
:102CD000CDE900400D4801F013FC0D4D0D4E0024D0
:102CE000084833462A460021CDE900400A4801F051
:102CF00007FCFEF773FB7CBD3333333FCDCC4C3E3A
:102D00009A99993F6F12033B140100204C01002057
:102D100000002041000040408401002010B500F078
:102D200001F810BD0CB500200190009033480068F8
:102D300040F480303149086000BF3048006800F43A
:102D4000003000900198401C0190009818B901983B
:102D5000B0F5A06FF1D12948006800F4003010B13F
:102D60000120009001E0002000900098012843D14C
:102D70002348006840F010002149086008460068B8
:102D800020F0030008600846006840F00200086078
:102D90001A48406819494860084640684860084633
:102DA000406840F4806048600846406820F47C1029
:102DB00048600846406840F4E810486008460068EB
:102DC00040F08070086000BF0C48006800F00070A0
:102DD0000028F9D00948406820F0030007494860FE
:102DE0000846406840F00200486000BF0348406861
:102DF00000F00C000828F9D10CBD000000100240C2
:102E00000020024070B504460D462A462146D020D7
:102E1000FFF7EAFA70BD000005480068401C04494D
:102E2000086004480068401C0249086070470000C0
:102E3000600000206400002010B51348006840F0D6
:102E400001001149086008464068104908400E49D1
:102E50004860084600680E4908400B49086008466B
:102E6000006820F4802008600846406820F4FE00D6
:102E700048604FF41F008860FFF750FF4FF000607C
:102E80000449086010BD0000001002400000FFF877
:102E9000FFFFF6FE08ED00E00148008870470000E3
:102EA0001004004021B1028842F08002028004E058
:102EB00002884FF67F731A400280704721B1028862
:102EC00042F00102028004E002884FF6FE731A40CD
:102ED0000280704770B5002400220023058C4FF655
:102EE000FE7635400584028C8388048B4FF68F75FF
:102EF0002C40B51E2C400D882C43751E2A400D8990
:102F00002A434D882A43144DA8420BD0134DA842A2
:102F100008D0134DA84205D0124DA84202D0124D40
:102F2000A84213D14FF6F7752A404D892A434FF630
:102F3000FB752A408D882A434FF6FF652B404FF6DC
:102F4000FF552B408D892B43CD892B4383800483F0
:102F5000CD888586028470BD002C0140003401407C
:102F60000040014000440140004801400A46002161
:102F7000018B4FF6F773194011430183704700002E
:102F800070B5002400220023058C4FF6EF76354003
:102F90000584028C8388048B48F6FF752C404FF61D
:102FA000FF452C400D884FF6FF7606EA05252C4399
:102FB0004FF6DF752A400D8906EA05152A434D882C
:102FC00006EA05152A43154DA84202D0144DA84221
:102FD0001DD14FF67F752A404D894FF6FF7606EAE0
:102FE00005152A434FF6BF752A408D8806EA051558
:102FF0002A434FF6FF352B404FF2FF752B408D894A
:1030000006EA85052B43CD8906EA85052B43838097
:103010000483CD880587028470BD0000002C014028
:10302000003401400A460021018B4FF2FF73194022
:103030004FF6FF7303EA0223194301837047000030
:1030400070B5002400220023058C4FF6FF66354042
:103050000584028C8388848B4FF68F752C404FF645
:10306000FC752C400D882C434FF6FF552A400D89E6
:103070004FF6FF7606EA05252A434D8806EA052520
:103080002A43154DA84202D0144DA8421DD14FF23B
:10309000FF752A404D894FF6FF7606EA05252A433B
:1030A0004FF6FF352A408D8806EA05252A434EF65D
:1030B000FF752B404DF6FF752B408D8906EA0515EF
:1030C0002B43CD8906EA05152B4383808483CD8865
:1030D0008587028470BD0000002C0140003401404F
:1030E0000A460021818B4FF6F77319401143818303
:1030F0007047000070B5002200230024058C4EF6B6
:10310000FF7635400584038C8488828B48F6FF75F2
:103110002A404FF6FF452A400D884FF6FF7606EA13
:1031200005252A434DF6FF752B400D8906EA053526
:103130002B434D8806EA05352B430B4DA84202D0A0
:103140000A4DA84208D14BF6FF752C408D894FF6E9
:10315000FF7606EA85152C4384808283CD88A0F80B
:103160004050038470BD0000002C01400034014039
:103170000A460021818B4FF2FF7319404FF6FF730F
:1031800003EA02231943818370470000002202886A
:103190001D4B98420ED01D4B98420BD0B0F1804F82
:1031A00008D01B4B984205D01A4B984202D01A4BBC
:1031B000984204D14FF68F731A404B881A43174B2D
:1031C000984207D0164B984204D04FF6FF431A405E
:1031D000CB881A4302808B8883850B8803850A4B32
:1031E00098420BD0094B984208D00E4B984205D01C
:1031F0000D4B984202D00D4B984201D10B7A0386B9
:103200000123838270470000002C014000340140FC
:103210000004004000080040000C00400010004086
:1032200000140040004001400044014000480140BB
:1032300000B585B04FF48060ADF8000004208DF833
:10324000030069461748FEF707FA4FF40070ADF81F
:10325000000003208DF8020018208DF80300694655
:103260001048FEF7F9F94FF4E13001900020ADF875
:103270000800ADF80A00ADF80C00ADF810000C2005
:10328000ADF80E0001A9084800F0F8F8012240F25C
:103290002551054800F0CCF80121034800F0AFF8B3
:1032A00005B000BD000801400038014010B52248BB
:1032B000008800F0200000283DD008211E4800F0C2
:1032C00095F81D48001D0088C4B21C48007800F025
:1032D000800080BB1948007800F0400080B10A2CC3
:1032E00003D000201549088025E01448008840F0EC
:1032F0008000124908800020114981F823001AE05B
:103300000D2C06D10D48008840F040000B49088084
:1033100011E060B20949097801F03F01084A5054B0
:1033200006480088401C05490880084600883F2858
:1033300001DD0020088010BD00380140E0000020C1
:103340003C03002010B52648008800F0200000282B
:1033500045D00821224800F049F82148001D008886
:10336000C4B22048007800F08000C0BB1D4800783F
:1033700000F0400080B10A2C03D0002019490880D9
:103380002DE01848008840F0800016490880002091
:10339000154981F83F0022E00D2C06D11148008824
:1033A00040F040000F49088019E0AA2C05D10D48D3
:1033B000008820F07F000B49088060B20949097835
:1033C00001F03F01084A505406480088401C054956
:1033D0000880084600883F2801DD0020088010BDD5
:1033E00000440040E20000207C03002001F4007251
:1033F000B2F5007F00D100BFCA430280704721B1FF
:10340000828942F40052828104E082894DF6FF7382
:103410001A408281704702460020B1F5007F00D13A
:1034200000BF13880B400BB1012000E00020704763
:10343000F0B50346002400260025002040F66A1758
:10344000B94200D100BF1846C1F3421401F01F0673
:10345000012707FA06F5012C01D10C3004E0022CFB
:1034600001D1103000E014301AB107682F43076013
:1034700002E00768AF430760F0BD00002DE9F047A8
:1034800086B005460E460024A24600BFA14600278E
:10349000B08900B100BF2F462C8A4CF6FF70044063
:1034A000F08804432C82AC894EF6F3100440B088B7
:1034B00031890843718908430443AC81AC8A4FF6D3
:1034C000FF400440B0890443AC8201A8FFF7ACF987
:1034D0001F48874202D1DDF810A001E0DDF80CA002
:1034E000A88900F4004040B10AEBCA0000EB0A10C2
:1034F00031684900B0FBF1F807E00AEBCA0000EBC5
:103500000A1031688900B0FBF1F86420B8FBF0F0D4
:1035100004012009642101FB1089A88900F40040FE
:1035200040B1322000EBC900B0FBF1F000F0070021
:10353000044308E0322000EB09106421B0FBF1F0F5
:1035400000F00F0004432C8106B0BDE8F0870000B6
:103550000038014070B505460C460CE014F9012B0B
:1035600091B2284600F022F800BF40212846FFF71C
:1035700052FF0028F9D020780028EFD170BD70B537
:1035800006460C4615460BE014F8011B304600F0C9
:103590000DF800BF40213046FFF73DFF0028F9D06D
:1035A000281EA5F10101CDB2EED170BDC1F3080214
:1035B0008280704700BFFEE710B504460649074801
:1035C000FFF7C8FF40F28A2000F071FC222221465A
:1035D0000248FFF7D4FF10BDBC03002000440040A8
:1035E00030B5034600220D48007800F0800098B105
:1035F0000A48007800F03F04002106E00848405CDB
:103600009854501CC2B2481CC1B2A142F6DB002043
:10361000024D2880104630BD0020FCE7E20000206B
:103620007C0300204100080218BF04200A0E18BFC6
:1036300040F001004FF07F4232EA010108BF40F044
:103640000200012808BF05207047012102F073BA6B
:1036500001F038BE0021084601F0A8BE6FF05E01FF
:10366000080702F068BA00002DE9F04D0D46144637
:103670004FF07F41B1EB440F9EBF4FF0FF31296007
:10368000BDE8F08D4FF0004040EA0421C4F3C7507C
:10369000783810F01F024A4B4FEA601CC2F1200636
:1036A0007B44C4F3C750A0F178004FEA601003EBED
:1036B000800053F82C3008BFD0E901C612D0D0F8F2
:1036C00004C093402CFA06F73B4387680CFA02FCCF
:1036D00027FA06F8C06807FA02F2F0404CEA080C34
:1036E00042EA0006A3FB0132ACFB01C0A6FB01616C
:1036F00001EB0C068E4234BF4FF0010C4FF0000C72
:10370000C1186144BCF1000F02D0814202D903E02C
:10371000814201D2012000E00020104400F120028B
:103720004FEA92188006CA0C40EA42304F03C5F8AF
:10373000008001F039FF8246384601F04DFF6FF0FE
:10374000120102F0F8F90746304601F045FF6FF02C
:10375000250102F0F0F983463946504601F0B2FDEA
:10376000594601F0AFFD00F500666FF30B065146B8
:10377000304602F039F9394602F036F9594602F07E
:10378000A1F8104901F070FF07460F49304601F0DB
:103790006BFF394601F096FD07460C49304601F0B3
:1037A00063FF394601F08EFD14F0004F08BFBDE8FD
:1037B000F08DC8F1805180F000402960BDE8F08DA7
:1037C00010250000DB0FC92F22AAFD290000C92FF8
:1037D0002DE9F0474FF0684202EB40030C460546E6
:1037E000B3F1654F3CBF02EB4102B2F1654F7CD2B1
:1037F000C0F3C753C1F3C7529A1A1B2A06DD10F053
:10380000004F14BF76487748BDE8F08712F11A0FD1
:1038100017DA11F0004F06D010F0004F0CBF7248BD
:103820007248BDE8F0872146284601F0BFFD0446F6
:10383000FFF7F8FE042808BFFFF710FF2046BDE899
:10384000F0874200B2EB410F25D910F0004F19BFAD
:10385000674F684E684F694E224685F00044154612
:103860000A4680F0004110460A1A5200B2F1807FE9
:1038700040D248406249DFF88CA110F0004F18D0C8
:103880004FF03F48384602F0AFF807465146304601
:1038900002F0AAF817E011F0004F04BF00263746E7
:1038A000E2D010F0004F19BF574F584E584F594EA5
:1038B000DAE74FF07C58384601F004FD07465146E0
:1038C000304601F0FFFC06464146284601F0CCFE9A
:1038D000214601F0F7FC82462146404601F0C4FE35
:1038E000294601F0EFFF514600E037E001F05EFDB0
:1038F000044604E02146284601F058FD04460146EE
:1039000001F0B2FE8046444901F0AEFE434901F0A9
:10391000D9FC414601F0A8FE414901F0D3FC4146E3
:1039200001F0A2FE3F4901F0CDFC414601F09CFEB2
:103930003D4901F0C7FC05464146204601F094FE92
:10394000294601F091FE314601F0BCFC214601F010
:10395000B9FC3946BDE8F04701F0B4BC4FF07F42F6
:10396000B2EB400F28BFB2EB410F03D2BDE8F047E6
:10397000FFF76EBE40EA01035B0008BF44F0FF4161
:103980000AD0B2EB400F08BFB2EB410F06D125F0D1
:10399000804024F0804105460C4629E7B2EB400FF9
:1039A00012BF5FEA410245F0FF4004F000413FF4DE
:1039B0001FAF4A0092EA40033FF51AAF002AACBF9E
:1039C0004FF09F464FF03E56314601F04DFE054602
:1039D0003146204601F048FE04462846214607E7C6
:1039E000DB0FC9BFDB0FC93FDB0F4940DB0F49C00D
:1039F0000000C9BF22AAFDB90000C93F22AAFD39B3
:103A00000060ED3EC30ACE37000049C022AA7DBA4D
:103A10000000494022AA7D3A2DAD65BD8FB8D53D45
:103A20000FB511BE61C84C3EA8AAAABE2DE9FF5F22
:103A3000044615461E463146284800F06FFD012217
:103A40002146264800F072FD1099086024480E991E
:103A500000F064FD01222248019900F067FD1199F0
:103A6000086029460F9801F0BFFF8146484601F0E3
:103A7000FDFB074600221B4B01F0D8FA0CD248464A
:103A800001F0F4FB82460022174B01F005FB0746CC
:103A900000F0CCFE814614E0484601F0E7FB074603
:103AA0000022124B01F088F90BD2484601F0DEFBF0
:103AB000074600220C4B00F0EBFE824600F0B6FEFB
:103AC000814649460A4800F02BFD00222946084855
:103AD00000F02CFD12990860BDE8FF9FBC0100209A
:103AE000F40100200080664000807640008066C0BF
:103AF0002C0200202DE9F05F04460F4615461E46B5
:103B0000DDE90A893146244800F008FD01222146FA
:103B1000214800F00BFD824601F00AFD00B21F496A
:103B2000088041461E4800F0F9FC012239461C4835
:103B300000F0FCFC824601F0FBFC00B21949088051
:103B40004946194800F0EAFC01222946164800F0CF
:103B5000EDFC83464FF0474101F052FD02D24FF099
:103B6000474010E0012229460F4800F0DFFC834661
:103B70000E4901F045FE01D20C4804E0012229461D
:103B8000094800F0D3FC824601F0D2FC00B208499B
:103B90000880BDE8F09F00001401002018000020FC
:103BA0004C0100201A0000208401002000FEFF4686
:103BB0001C0000201CB534483449354B354ACDE94A
:103BC00000100021344800F09BFC2F482F49304B57
:103BD000304ACDE900100021304800F091FC2A481D
:103BE00000212F4B2F4ACDE900102F4800F088FC10
:103BF0002E49294800F096FC2C49284800F092FCF8
:103C00002B49294800F08EFC2A49234800F08CFCFF
:103C10002849224800F088FC2749234800F084FC0A
:103C2000264800210B46264ACDE90010254800F021
:103C300067FC224800210B46214ACDE900102248AA
:103C400000F05EFC1D4800210B46164ACDE900102D
:103C50001E4800F055FC15491A4800F063FC134952
:103C6000194800F05FFC1A49184800F05BFC114944
:103C7000144800F059FC0F49134800F055FC154951
:103C8000124800F051FC1CBD6F12033B9A99993FFA
:103C9000CDCC4C3E3333333F140100204C01002087
:103CA0000000404000002041840100200000A041AD
:103CB000000048420000A0C1000048C26F12833BD0
:103CC0000000A042BC010020F40100202C020020D2
:103CD0000000B4430000B4C32DE9F8430446024693
:103CE0004F486946B0EB420F09D94FF0E640B0EBC0
:103CF000420F94BF00204FF0FF30009030E0494B5E
:103D000022F00040834271D94749204601F0ACFCC3
:103D100001F0A8FD804601F00BFC00F003000090CC
:103D20004249404601F0A0FC05464149404601F0A9
:103D30009BFC06463F49404601F096FC07463E493B
:103D4000404601F091FC214601F0BCFD394601F0EE
:103D50004BFE314601F048FE294601F045FE04467F
:103D60002546009C002C45DB294614F0010F08462F
:103D70001CD001F079FC0646304901F075FC304951
:103D800001F0A0FD314601F06FFC2E4901F09AFAD6
:103D9000314601F069FC294601F066FC294601F034
:103DA00091FA14F0020F1CD0BDE8F88301F05CFC1E
:103DB0000546254901F058FC244901F083FA2946BB
:103DC00001F052FC224901F07DFA294601F04CFC39
:103DD0004FF07E5101F076FA14F0020F08BFBDE8F3
:103DE000F88380F00040BDE8F883FFE71046FFF756
:103DF0003BFCB4E76800B0F17F4F3CBF4FF07E5012
:103E0000BDE8F88307D14FF00100FCF70CFABDE8DC
:103E1000F843FFF71FBC2846BDE8F843FFF715BC81
:103E2000B61F927E490E494683F9223F1A61342C0F
:103E30000020A23300A0FD390000C93F336D4C398A
:103E4000DA82083CA0AA2ABEB93AB2BACA9F2A3D71
:103E5000DDFFFFBE00B585B06846FEF7E5FC04490E
:103E60000098B0FBF1F00349086005B000BD000008
:103E700040420F005C00002010B504460249204675
:103E800001F0F2FB10BD0000E12E654230B50446A2
:103E9000FEF738F8054600BFFEF734F8401B04EB88
:103EA0004401C1EBC411B0EBC10FF5D330BD0146E5
:103EB000002005E0012001E0421E50B20028FBDC9A
:103EC0000A1EA1F10101F5D1704700002DE9F04172
:103ED00004460D4616461F46611B3144C81B01F0BF
:103EE00063FB8046FEF700FB10490860611931440E
:103EF000C81901F059FB8046FEF7F6FA0C49086034
:103F00006119891BC81B01F04FFB8046FEF7ECFAD4
:103F100008490860611B891BC81901F045FB8046F0
:103F2000FEF7E2FA04490860BDE8F08130000020A5
:103F3000380000203C000020340000202DE9FF4F15
:103F400091B01C461E9D119800F040FB0746119849
:103F5000FFF7C2FE1090129800F038FB80461298CE
:103F6000FFF7BAFE0646139800F030FB0F90139847
:103F7000FFF7B2FE0E9030460E9901F075FB0B90E4
:103F8000DDE90F1001F070FB82464146384601F032
:103F90006BFB83460E9901F067FB8146514601F0A9
:103FA00091F90C9038460F9901F05EFB824641462C
:103FB000109801F059FB83460E9901F055FB80F0F3
:103FC00000495146484601F07DF90D9086F00049C0
:103FD00048460F9901F048FB08900E99109801F09F
:103FE00043FB82464146384601F03EFB83460F992B
:103FF00001F03AFB80F000495146484601F062F971
:10400000099038460E9901F02FFB824641461098E0
:1040100001F02AFB83460F9901F026FB81465146A9
:1040200001F050F90A90CDF8148087F0004931462C
:10403000484601F019FB06903146109801F014FB38
:104040000790A1680D9801F00FFB824661680C98FB
:1040500001F00AFB019021680B9801F005FB8346F3
:10406000019901F02FF98146514601F02BF9029098
:10407000A1680A9801F0F8FA82466168099801F08F
:10408000F3FA83462168089801F0EEFA5946019048
:1040900001F018F98146514601F014F90390A16826
:1040A000079801F0E1FA01906168069801F0DCFAE6
:1040B00082462168059801F0D7FA8346514601F0FF
:1040C00001F98146019901F0FDF804900298206001
:1040D000039860600498A060A9680D9801F0C4FA84
:1040E000824669680C9801F0BFFA834629680B98EC
:1040F00001F0BAFA5946019001F0E4F881465146C0
:1041000001F0E0F80290A9680A9801F0ADFA824641
:104110006968099801F0A8FA83462968089801F0AF
:10412000A3FA5946019001F0CDF88146514601F0BD
:10413000C9F80390A968079801F096FA8246696861
:10414000069801F091FA01902968059801F08CFA1F
:104150008346019901F0B6F88146514601F0B2F864
:10416000049002982860039868600498A86015B0CD
:10417000BDE8F08F2DE9F743DDE90101FFF728FBEA
:104180000446FFF779FE104908600299084601F0DD
:104190006BFA80460199084601F066FA814641466D
:1041A00001F090F8074600F0D5FA0546009880F037
:1041B000004629463046FFF70BFB0446FFF75CFE3E
:1041C00001494860BDE8FE836402002070B50446E2
:1041D0000B461168B3F5807F02DD4FF4807302E077
:1041E000012B00DA012325026E1A361206FB031199
:1041F000C1F3C01606EB212630B2116070BDF0B5D8
:1042000004460D4616461F46B4F9000032463946AC
:10421000FFF7DCFF2880B4F90200321D3946FFF7B2
:10422000D5FF6880B4F9040006F108023946FFF7AB
:10423000CDFFA880F0BD000070B5FEF7FDFDFEF7D4
:10424000EBFAFEF74CFAFDF7E7F9FEF7F1FF4FF452
:10425000E13000F095FAFFF7FDFD224800684FF4C9
:104260007A72B0FBF2F1B1F1807F00D31DE021F052
:104270007F40401E4FF0E022506150170F2200286F
:1042800007DA13071D0E184B00F00F04241F1D55ED
:1042900003E013071C0E154B1C5400BF00204FF009
:1042A000E02290610720106100BFFEF7CBF8FDF718
:1042B000A5F9FFF77FFCFDF781F9FCF797FCFCF708
:1042C00039FEFEF771FAFCF75FFEFCF7F1FEFCF732
:1042D00005F8FDF727FFFEF73CF900F009F800208C
:1042E00070BD0000EC00002018ED00E000E400E0EC
:1042F0009AB0242101A8FBF767FF002500260027BC
:10430000A846A946AA46242101A8FBF75DFF0D2077
:104310008DF824000A208DF82500FEF743F90023CC
:104320001A4619461846FEF7A9F96D48006800F1CB
:104330000A09D3E0781C6A490968884224D2FDF74B
:10434000A5FA6848007830B9674B9A6819685868C8
:10435000FCF7F2F808E0002064490860644908604E
:1043600064490860644908606348008803B2614892
:10437000008802B25E48008801B25C48008800B242
:10438000FEF77CF95648076808F1040054490968AB
:1043900088426FD20AA8FFF723F904460A2C66DD8B
:1043A000222C64DA9DF82A00C01C0AA9085C1C288B
:1043B0005DD19DF82800AA2859D19DF82900C02870
:1043C0000FD04E48006800F4005028B14FF4005060
:1043D0004A490C31086004E04FF400504749083165
:1043E000086000259DF8290021282FD00CDC122818
:1043F00022D004DC102817D0112836D118E0142858
:104400001BD0202831D11CE040282AD004DC2228EF
:1044100021D0242829D11FE0412825D0C02824D12B
:104420000AA8FDF791FD21E00AA8FEF7A1FA1DE018
:104430000AA8FEF765FA19E018E00AA8FEF780FB63
:1044400014E00A2601A8FDF7E1FA0FE00A2601A808
:10445000FDF7A0F90AE009E00A2601A8FDF78AFBAA
:1044600004E0FDF745F801E000E000BF00BF1C4894
:10447000D0F8008009F113001949096888421CD25C
:104480001EB901A8FDF72AFC01E0701EC6B201A802
:10449000FFF792F81948006800F4005028B14FF473
:1044A000005016490C31086004E04FF400501349E5
:1044B000083108600A48D0F800900AF16300084902
:1044C000096888420AD2142D03DD012005490870CD
:1044D0000025681CC5B20248D0F800A02AE70000F9
:1044E000640000204800002064020020300000200A
:1044F00034000020380000203C000020080C01405F
:1045000070B5DDE90445002646608660C660066138
:10451000016042618361C461456370BD01607047A1
:1045200041607047C1627047016370472DE9F041F7
:1045300004460F46154625B13946206801F054FA65
:104540006060616B606801F08FF88046E16800F0A0
:10455000B9FEE060E16AE06801F052F902D2E06A77
:10456000E06006E0216BE06801F04AF801D2206BC0
:10457000E060D4E9010101F037FA8046616B00F098
:1045800015FF20616168606901F06EF82062E168E2
:10459000A06901F069F860622169E06901F064F8DE
:1045A0008046094900F002FFA062D4E9080100F04A
:1045B00089FE8046A16A00F085FE06466068A0601C
:1045C0003046BDE8F0810000000020412DE9F843AD
:1045D0000446024652486946B0EB420F09D94FF0F3
:1045E000E640B0EB420F94BF00204FF0FF30009048
:1045F00030E04C4B22F00040834271D94A492046BA
:1046000001F032F801F02EF9804600F091FF00F041
:10461000030000904549404601F026F8054644490C
:10462000404601F021F806464249404601F01CF898
:1046300007464149404601F017F8214601F042F98A
:10464000394601F0D1F9314601F0CEF9294601F0A1
:10465000CBF904462546009C002C45DB294614F086
:10466000010F08461ED000F0FFFF0546334900F059
:10467000FBFF334900F026FE294600F0F5FF3149E3
:1046800000F020FE294600F0EFFF4FF07E5100F0D1
:1046900019FE14F0020F08BFBDE8F88380F0004057
:1046A000BDE8F88300F0E0FF0646274900F0DCFF94
:1046B000264901F007F9314600F0D6FF244900F001
:1046C00001FE314600F0D0FF294600F0CDFF29461B
:1046D00000F0F8FD14F0020FE0D1BDE8F883FFE729
:1046E0001046FEF7C1FFB4E76800B0F17F4F09D272
:1046F0002846FEF797FF042808BFFEF7AFFF2846BD
:10470000BDE8F88306D10120FBF78DFDBDE8F84335
:10471000FEF7A0BF2846BDE8F843FEF796BF0000AD
:10472000B61F927E490E494683F9223F1A61342C06
:104730000020A23300A0FD390000C93FB93AB2BA47
:10474000CA9F2A3DDDFFFFBE336D4C39DA82083C3B
:10475000A0AA2ABE70B5054601F0BEF8044620F0B6
:104760000040C0F1FF40C00F08D025F00040C0F16C
:10477000FF40C00F04BF0120FBF755FD204670BD70
:1047800010B586B0044601214804FEF725F8012142
:104790000420FEF731F80420ADF8140003208DF852
:1047A000160018208DF8170005A91E48FCF754FFC5
:1047B0000820ADF8140004208DF8170005A9194849
:1047C000FCF74AFF26208DF8000004208DF8010038
:1047D00001208DF802008DF803006846FDF798FF70
:1047E00001940020ADF80800ADF80A00ADF80C0007
:1047F000ADF810000C20ADF80E0001A90A48FEF734
:104800003DFE40210848FEF7F1FD012240F225510E
:104810000548FEF70DFE01210348FEF7F0FD06B046
:1048200010BD0000000801400044004021F000429B
:10483000A2F16052B2F5801F01F0004328BFD2F10F
:104840007F6C0BD95FEA001C43EAC20242EB507056
:1048500018BF704728BF20F001007047B2F5801FD5
:10486000BCBF184670474FEA410C1CF5001F02D22E
:10487000084600F0C0BF70B500F084FB000000895E
:10488000FFF7F6BF4FF00040A0F580007047000032
:1048900010B591EA030F48BF83F0004300F1048490
:1048A000841A71EB030C05D2121943EB0C03001BA5
:1048B00061EB0C01DFF824E14FEA1154A4EB135C27
:1048C0001EEA430F18BF9EEA445F73D023EA0E032B
:1048D000DCF1200E21EA045143F4801332D322FA92
:1048E0000CFE10EB0E0023FA0CFE41EB0E01CCF196
:1048F000200E03FA0EFE10EB0E0051F10001B1F58F
:10490000801FCCF1200E32D201EB045112FA0EF2CC
:10491000BDE8104058BF7047401C38BF5FEA4202F4
:1049200018BF7047002814BF20F0010041F10001BA
:104930004FEA410313F5001F38BF7047A1F1C04192
:1049400000F06EBB012A43EB0302ACF1200CDCF15A
:104950001F0E32BF4FF0000E23FA0CF310EB0300D2
:1049600041EB0451B4EB115FD0D0A1EB045101F540
:10497000801149085FEA300001EB04510ED350F179
:10498000000038BF12FA0EFE08D1BDE81040C9E79A
:10499000401C38BF5FEA4202CAD1C3E7BDE81040FD
:1049A0004FEA410313F5001F38BF7047A1F1C04122
:1049B00000F036BB9EEA445F08D011EA5E0FBDE806
:1049C000104004BF01F0004100207047BDE81040D6
:1049D00070B500F0D7FA00BF64FBBE3E0000E0FFF8
:1049E000491058BFC1F140415B1058BFC3F140436B
:1049F0008B42EFF3008070472DE9C04130B4DFF8FF
:104A0000A0C23CEA111418BF3CEA131400F0EC8079
:104A100081EA03051CEA111444EAD57418BF1CEAA4
:104A2000131500F0C780A4EB05044FF0004545EADC
:104A3000C12145EAC32341EA505143EA525304F1EC
:104A40007F74994204F500344FEAC0204FEAC22235
:104A500008BF904200F09C804FEA13650FF24016A9
:104A6000765D4FEA134506FB05F7C7F1807706FB35
:104A700007F74FEAD737A7FB03687642C8F58038B7
:104A8000A7FB06CE38BFA8F1010807FB08E64FF0E8
:104A9000000EA6FB028CE6FB03CEDCF1000CCEF18F
:104AA000004E38BFAEF1010EA6FB0C584FF00007C8
:104AB0004FF00005E6FB0E87A1FB08C6A0FB07CE62
:104AC00016EB0E0645F10005E1FB076515F1E04E1A
:104AD0007EBFA4F580345FEA46066D4116F180077B
:104AE00045F100054FEA17274FEA066647EA0567D2
:104AF000A6F1DE46B6F1805F4FEA15251FD938468C
:104B000024F0010C05EBC471BCF1FE6F01EB0C113C
:104B100002D8F0BCBDE8008124425CBF01F5801ED4
:104B20009EEAC47F02D4F0BCBDE80081244238D4A0
:104B3000F0BCA1F1C041BDE8004100F071BA4FEAFC
:104B4000D22242EA43524FEAD323A7FB02864FEA1E
:104B5000D02040EA415007FB03661EEA0E0F4FEAE1
:104B6000D12105FB026658BFA6EB0056B6EB0056F6
:104B70004FEA520E4EEAC37E18EB0E0E56EB530E62
:104B8000BDD518EB02085E417F1C55F10005B6E764
:104B90004FF480154FF000074FF000064FF000086B
:104BA000ADE7F0BC4FF0000001F1C04101F0004161
:104BB000BDE8008111EA0C1F0CEA131500D00CE0CF
:104BC00013EA0C1F00F025804FF00000F0BC81EAD2
:104BD000030101F00041BDE80081F0BCBDE80041E7
:104BE00081EA030100F01CBAF0BCBDE8004170B5D9
:104BF00000F0C8F9097EFC3E00F007B881EA030125
:104C00004FF0000001F00041704781EA030100F01D
:104C100007BAF0BCBDE800414FF0000021497047E1
:104C2000FFFDFBF9F7F5F4F2F0EEEDEBE9E8E6E471
:104C3000E3E1E0DEDDDBDAD8D7D5D4D3D1D0CFCDF8
:104C4000CCCBCAC8C7C6C5C4C2C1C0BFBEBDBCBB31
:104C5000BAB9B8B7B6B5B4B3B2B1B0AFAEADACAB2C
:104C6000AAA9A8A8A7A6A5A4A3A3A2A1A09F9F9E06
:104C70009D9C9C9B9A9999989797969595949393B8
:104C8000929191908F8F8E8E8D8C8C8B8B8A89894F
:104C900088888787868585848483838282818180D2
:104CA0000000FF070000F87F4FEA41034FEA53532B
:104CB000A3F58063D3F11E03C8BFD3F1210C0CDD33
:104CC0004FF0004242EAC12242EA505232FA03FC5B
:104CD0008CEAE17CACEBE1707047102BC4BF002084
:104CE000704703F5787CBCF1FF3F04D06FF00042C1
:104CF00082EA2100704770B500F044F9499224809F
:104D000000207047F2E700004FEA1153A3F58063DB
:104D1000D3F11E03A8BFD3F1200C08DB4FF00042F3
:104D200042EAC12252EA505232FA03F07047094275
:104D30000BD4102BC4BF0020704703F5787CBCF166
:104D4000FF3F05D04FF0FF3070474FF00000704735
:104D500070B500F017F900BF499224800020704719
:104D6000F0E710F0004248BF4042B0FA80F310FA7A
:104D700003F10AD0C3F11D0303F580634FEA4150EC
:104D800002EB035202EBD12170474FF00000704755
:104D9000B0FA80F310FA03F10AD0C3F11D0303F552
:104DA00080634FEA41504FEA035202EBD121704732
:104DB0004FF000007047000051EA030C17D41CF5B7
:104DC000801F58BFBCF5801F00F10680994218BFB4
:104DD000704708BF9042704707D711F5801F58BF32
:104DE00013F5801F19D499427047894270471CF50A
:104DF000801F08D5BCF5801FF7D58B4218BF7047C0
:104E000008BF824270474FF4001C1CEB410F38BFB3
:104E10001CEB430F01D28B42704770B500F0B2F823
:104E2000922449004FF000514FF08053FFF7D8BD56
:104E3000DFF848C170B51CEA111E1EBF1CEA13152D
:104E40009EEA0C0F95EA0C0F00F06F8081EA0304D4
:104E500023EA4C134EEAD47E21EA4C1141F480112E
:104E600043F48013AE44A1FB024CA0FB0365AEF1FA
:104E70007F7E361955EB0C05A1FB034C4CF100036A
:104E8000A0FB021C16EB0C06654153F1000309421E
:104E900018BF46F0010613F4007F0BD14FEA03312F
:104EA0004FEA0530340341EA155140EA16506FF0DD
:104EB00003020AE04FEAC3214FEAC520F40241EAA7
:104EC000555140EA56506FF0020202EB2E4201EBC0
:104ED000025585EACE710AD05FEA440C18BF24F06F
:104EE000004450F1000041F1000120EAD47040F28A
:104EF000FE7C624500D270BDA84214BF4FF08044D2
:104F00004FF04044002E08BF0024BEF1806FA8BFC0
:104F1000A1F1C041BDE8704080F282804FF00000F6
:104F200001F1C04101F0004170479EEA0C0F0CEA0C
:104F3000131518BF95EA0C0F06D04FF0000081EA58
:104F4000030E0EF0004170BD00F01CF88900013E18
:104F500000F007B800F009B84FEA430C5FEA5C5C68
:104F600008D081EA030100F05BB84FEA410C5FEA28
:104F70005C5CF6D14FF00000014970470000FF076C
:104F80000000F87F0EF1020E2EF0030E5EF8046BA7
:104F9000364205D4012A43EB030515F5001F12D84C
:104FA000012841EB010C1CF5001F0CD80ED14FEA73
:104FB000D17C15F5001F0CEB4C0C0CF1020C08BF5A
:104FC0004CEBD37C04E04FF0080C01E04FEAD37CBB
:104FD0000CEB4C0526FA05F606F00706B6F1040CB4
:104FE00006D20EEB860CBDE870404CF0010C604719
:104FF000DFE80CF0090B02024FF000414FF0000017
:10500000A1F5002170BD19461046012851EB01049D
:1050100018BFD4F5001484BF002001F0004170BD1A
:105020000808A0F500114FEA3101704753EA010C5E
:1050300017D41CF5801F58BFBCF5801F00F10680F7
:105040008B4218BF704708BF8242704707D713F5DD
:10505000801F58BF11F5801F19D48B4270479B42A7
:1050600070471CF5801F08D5BCF5801FF7D5994205
:1050700018BF704708BF904270474FF4001C1CEBEC
:10508000430F38BF1CEB410F01D2994270470FB458
:105090000CBC03BCFFF7C1BE10B591EA030F48BFBB
:1050A00083F000433FF5FCAB841A71EB030C07D28D
:1050B00012198CF0004C43EB0C03001B61EB0C014C
:1050C000DFF8A4E14FEA1154A4EB135C1EEA430F8E
:1050D00018BF9EEA445F00F0B08023EA6E0352429C
:1050E00021EA0451C3EB6E0338BF5B1EDCF1200ED6
:1050F00025D322FA0CFE10EB0E0043FA0CFE41EB16
:105100000E01CCF1200E03FA0EFE10EB0E0051F151
:105110000001CCF1200E29D412FA0EF201EB045159
:10512000BDE8104058BF7047401C1CBFB2F1004F93
:10513000704700280CBF491C20F00100704712EB9B
:10514000020E43EB030218BF4FF0010E4EEA42027B
:10515000ACF1200CDCF11E0E54D943FA0CFE10EB1E
:105160000E0051F1FF31CCF11E0ED5D50EF1010E1E
:1051700012FA0EFE404141EB010101EB445C5FEA93
:105180005C5C10D910EBDE7001EB045138BFBEF14E
:10519000004FBDE8104018BF704700280CBF491CE5
:1051A00020F00100704730D24FEAD42C11F50011E5
:1051B00024F400641BD0B1FA81F20B3AA41AA41EA5
:1051C000D2F12003914030FA03F31943904001EBF0
:1051D000CC71002C01EB0451BDE81040A8BF704712
:1051E00001F1C0414FF0000001F000417047B0FAFA
:1051F00080F310FA03F100D110BDE41A173C480502
:10520000C90AE4E701EB045110BD491001EB045158
:10521000BDE810404FEA300002E04FF00001704757
:105220004A0008BF0042F8D0B2F5001F28BF7047FF
:1052300001F000414FF0000070479EEA445F07D044
:1052400011EA5E0FBDE8104004BF00210020704746
:10525000BDE8104070B5FFF795FE00BF40DFF63E99
:1052600083F00041104670470000E0FF43004FEA22
:10527000D30C4FEA3C0C43401FBF40070CF1605178
:1052800013F0FE4F70471CF0006F03D100200CF0AC
:10529000004170470CF0004343EA507010B540EAFB
:1052A000CC0000F062FA00BF000000924FEA00015B
:1052B000FFF7B6BE4FF000414FF00000A1F500210E
:1052C0007047000090EA010F48BF81F0004100F1F3
:1052D0009283421A3CBF801A89184FEAD0524FF08D
:1052E0007F4C1CEA410FA2EBD15318BF9CEA026F1E
:1052F00000F03B804FF0004C4CEA00204CEA0121CA
:1053000021FA03FC10EB0C0C1ED202F1FF325FEA13
:105310001C2040EBC25038BF70471CF07F0F4FEA93
:10532000400C18BFBCF17F4F38BF7047C3F120035A
:10533000994008BF20F00100BCF17F4F38BF704793
:10534000A0F1C04000F057BA4FEA3C00000A40EB21
:10535000C25028BF1CF0FF0F4FEA400CE6D018BF28
:10536000BCF17F4F38BF7047EAE79CEA026F05D077
:1053700010EA5C0F08BF00F00040704710B500F065
:10538000F4F900BF64FBBE3E014800F0A2BB00BFC1
:105390000000C07F401058BFC0F14040491058BFC6
:1053A000C1F140418142EFF3008070474FF47F0C20
:1053B0001CEAD0121EBF1CEAD11392EA0C0F93EA2A
:1053C0000C0F00F0858090EA010F48BF42F4807214
:1053D00040F4000C41F400002CF07F4120F07F40AD
:1053E00000B58142A2EB03020FF2081CACEB504E59
:1053F000C0F100009EF800E04FEA4E0E00FB0EFCEC
:1054000038BF49004FEA2C1C02F5FA020CFB0EF3E0
:105410004FEACE1E4FEA112C4FEAC1210EEB635E1C
:1054200042EB22420EFB0CFC4FEA1C5300FB031123
:105430004FEA112C4FEA01310EFB0CFC4FEADC4C19
:1054400000FB0C11C14228BF09184CEB03335DF877
:1054500004EB10EB410143EBC250B2F57C0F38BFB7
:10546000704729D512F0F00F1CBF00F1C04000F0CA
:1054700000407047008182838485868788898B8C71
:105480008D8E8F919293959697999A9C9D9FA0A2AD
:10549000A3A5A7A8AAACAEB0B2B3B5B7B9BCBEC0FD
:1054A000C2C5C7C9CCCED1D4D7D9DCDFE2E6E9EC9E
:1054B000F0F3F7FAFE0000004FEA400C0CF1807C9C
:1054C000BCF17E4F28BF7047B0F1C04000F093B9E7
:1054D00090EA010F0CEAD11348BF42F48072624592
:1054E00038BF634507D213F47F0F16D080EA01005E
:1054F00000F00040704710B500F037F9097EFC3E1F
:1055000000F005B880EA010000F00040704780EA32
:10551000010000F0004000F06EB912F47F0F04BFEC
:105520000248704780EA010000F065B90000C07FC2
:1055300041000B0ED3F19E0208D950F400034FEA4C
:10554000032323FA02F048BF4042704710B500F031
:105550000CF900BF49922480002070476FF0004290
:1055600082EA200070470000C10DD1F19E0206DBE7
:105570004FEA002343F0004323FA02F07047004251
:1055800007D54FEA4001B1F1FE4F02D24FF00000C3
:10559000704710B500F0E9F8499224800020704768
:1055A0006FEA20007047000010F0004148BF404201
:1055B000B0FA80F310FA03F2C3F19D030BD051EA65
:1055C000C35101EB1220530638BF704700F10100B0
:1055D00008BF20F001007047B0FA80F310FA03F220
:1055E000C3F19D030AD0D90501EB1220530638BF41
:1055F000704700F1010008BF20F001007047000073
:1056000050EA010C00F113801CF5000F58BFBCF5E7
:10561000000F01D48842704707D710F5000F58BF1C
:1056200011F5000F15D488427047894270471CF568
:10563000000F04D5BCF5000FF7D5814270474FF03D
:10564000807C1CEB400F38BF1CEB410F01D2814224
:10565000704710B500F089F8922449004FF00050CF
:105660004FF08051FFF796BE4FF47F0C1CEAD0122A
:105670001EBF1CEAD11392EA0C0F93EA0C0F00F044
:10568000478090EA010F48BF42F480724FF0004C0F
:105690004CEA00204CEA012102EB0302A0FB0113BB
:1056A000A2F50002002918BF43F001035B0028BFE8
:1056B0004FEA330342EB22425FEA132C4CEBC25019
:1056C0002EBFBCEB436FB2F57C0F70474FEA036C03
:1056D000BCF1004F08BF20F00100B2F57C0F38BFCD
:1056E00070470BD582F0FF0212F5803FC8BF7047AC
:1056F00000F1C040D8BF00F00040704700F5000C3A
:105700005FEA4C0C48BF7047B0F1C04000F073B87E
:1057100090EA010F0CEAD11348BF42F4807262454F
:1057200038BF634504D280EA010000F000407047B2
:1057300010B500F01AF800BF8900013E00F007B86C
:1057400000F009B85FEA410C5FEA1C6C08D080EAFF
:10575000010000F050B85FEA400C5FEA1C6CF6D123
:105760004FF00040A0F5800070470EF1020E2EF0C1
:10577000030E5EF8044B244204D44FEA4102B2F116
:105780007F4F11D84FEA4003B3F17F4F0CD80ED1B1
:105790004FEAD07CB2F17F4F0CEB4C0C0CF1020CB9
:1057A00008BF4CEBD17C04E04FF0080C01E04FEA5D
:1057B000D17C0CEB4C0324FA03F404F00704B4F19D
:1057C000040C06D20EEB840CBDE810404CF0010C2A
:1057D0006047DFE80CF0070802024FF00040A0F538
:1057E000800010BD0846420018BFD2F1807288BF09
:1057F00000F0004010BDFF2141EAD050C0057047C5
:1058000051EA000C00F113801CF5000F58BFBCF5E5
:10581000000F01D48142704707D711F5000F58BF20
:1058200010F5000F15D481427047894270471CF56E
:10583000000F04D5BCF5000FF7D5884270474FF034
:10584000807C1CEB410F38BF1CEB400F01D288421B
:10585000704780EA010081EA000180EA0100FFF759
:10586000F8BE00005FEA400C5FEA1C6CBCF17F03ED
:1058700014D4D3F1170240F31C804FF0010C0CFA42
:1058800002FCACF101030340B3EB5C0220EA03002D
:1058900008BF10EA0C0F88BF60447047B3F1FF3FA8
:1058A00028BF5FEA002C00F0004088BF40F07E5027
:1058B0007047BCF1FF0FB8BF704710B5FFF755FF39
:1058C00040DBB6BE80F0004090EA010F7FF501ADED
:1058D00081F0004100F08FB84FEAD051002988BF15
:1058E000D1F1FF0240F2758001F17D014FEA002005
:1058F00070B5490840F0004038BF40080EA2430E82
:10590000040CD25C02FB02F304FB03F3C3F140433B
:10591000A3FB0254ED0D45EA442202FB02F3A0FB77
:1059200003546D42C4F1404438BF641EA2FB0535E8
:105930000023E2FB0453EA0B42EA4342A0FB02329B
:1059400012F14004A2F12103E40903F07F031F2BAD
:1059500032D904EBC15070BDFEFAF7F3F0ECE9E682
:10596000E4E1DEDCD9D7D4D2D0CECCCAC8C6C4C21A
:10597000C1BFBDBCBAB9B7B6B4B3B2B0AFAEACABD1
:10598000AAA9A8A7A6A4A3A2A1A09F9E9E9D9C9BF6
:105990009A999897979695949393929190908F8EC9
:1059A0008E8D8C8C8B8A8A89898887878686858468
:1059B000848383828281818004FB04F6B6EB0046F7
:1059C00003D5E64248BF641CC3E7A64258BF641C27
:1059D000BFE711F0FF0F02D100F00040704710B593
:1059E000FFF7C3FE7FDBFFBE90EA010F48BF81F0E7
:1059F00000413FF56EAC421A04D882F00042A0EBA1
:105A0000020011444FEAD0524FF07F4C1CEA410F84
:105A1000A2EBD15318BF9CEA026F4AD04FF0004C62
:105A20004CEA00204CEA012121FA03FCB0EB0C0CFB
:105A30000FD412F0FE0F36D05FEA4C001DD50012D5
:105A400040EBC25038BF70471CF03F0F18BF704783
:105A50000BE0A2F101025FEA1C2040EBC25038BF0C
:105A600070471CF07F0F18BF7047C3F120039940A7
:105A700014BF401E20F00100704780084FEA122337
:105A800008BF7047B0FA80FCA2EB0C02CCF1280CE6
:105A900060FA0CF093EA122F04BF00EBC25070477B
:105AA0004FEAC3707047130A5FEADC1008BF704703
:105AB000F6E79CEA026F04D010EA5C0F08BF0020F2
:105AC000704710B5FFF751FE40DFF63E81F0004011
:105AD00070470CF00F03092B08BF082000F051801D
